{
  "_format": "hh3-artifact-1",
  "contractName": "MarketFactory",
  "sourceName": "contracts/MarketFactory.sol",
  "abi": [
    {
      "inputs": [
        {
          "internalType": "address",
          "name": "_adapter",
          "type": "address"
        },
        {
          "internalType": "address",
          "name": "_feeRecipient",
          "type": "address"
        },
        {
          "internalType": "uint256",
          "name": "_protocolFeeBps",
          "type": "uint256"
        }
      ],
      "stateMutability": "nonpayable",
      "type": "constructor"
    },
    {
      "anonymous": false,
      "inputs": [
        {
          "indexed": true,
          "internalType": "address",
          "name": "market",
          "type": "address"
        },
        {
          "indexed": true,
          "internalType": "address",
          "name": "creator",
          "type": "address"
        }
      ],
      "name": "MarketCreated",
      "type": "event"
    },
    {
      "inputs": [],
      "name": "adapter",
      "outputs": [
        {
          "internalType": "address",
          "name": "",
          "type": "address"
        }
      ],
      "stateMutability": "view",
      "type": "function"
    },
    {
      "inputs": [
        {
          "internalType": "uint256",
          "name": "strike",
          "type": "uint256"
        },
        {
          "internalType": "uint256",
          "name": "startTime",
          "type": "uint256"
        },
        {
          "internalType": "uint256",
          "name": "endTime",
          "type": "uint256"
        },
        {
          "internalType": "uint256",
          "name": "minBet",
          "type": "uint256"
        },
        {
          "internalType": "bytes32",
          "name": "priceId",
          "type": "bytes32"
        }
      ],
      "name": "createMarket",
      "outputs": [
        {
          "internalType": "address",
          "name": "",
          "type": "address"
        }
      ],
      "stateMutability": "nonpayable",
      "type": "function"
    },
    {
      "inputs": [],
      "name": "feeRecipient",
      "outputs": [
        {
          "internalType": "address",
          "name": "",
          "type": "address"
        }
      ],
      "stateMutability": "view",
      "type": "function"
    },
    {
      "inputs": [],
      "name": "getMarkets",
      "outputs": [
        {
          "internalType": "address[]",
          "name": "",
          "type": "address[]"
        }
      ],
      "stateMutability": "view",
      "type": "function"
    },
    {
      "inputs": [
        {
          "internalType": "uint256",
          "name": "",
          "type": "uint256"
        }
      ],
      "name": "markets",
      "outputs": [
        {
          "internalType": "address",
          "name": "",
          "type": "address"
        }
      ],
      "stateMutability": "view",
      "type": "function"
    },
    {
      "inputs": [],
      "name": "owner",
      "outputs": [
        {
          "internalType": "address",
          "name": "",
          "type": "address"
        }
      ],
      "stateMutability": "view",
      "type": "function"
    },
    {
      "inputs": [],
      "name": "protocolFeeBps",
      "outputs": [
        {
          "internalType": "uint256",
          "name": "",
          "type": "uint256"
        }
      ],
      "stateMutability": "view",
      "type": "function"
    },
    {
      "inputs": [
        {
          "internalType": "address",
          "name": "_adapter",
          "type": "address"
        }
      ],
      "name": "setAdapter",
      "outputs": [],
      "stateMutability": "nonpayable",
      "type": "function"
    },
    {
      "inputs": [
        {
          "internalType": "address",
          "name": "_recipient",
          "type": "address"
        }
      ],
      "name": "setFeeRecipient",
      "outputs": [],
      "stateMutability": "nonpayable",
      "type": "function"
    },
    {
      "inputs": [
        {
          "internalType": "uint256",
          "name": "_bps",
          "type": "uint256"
        }
      ],
      "name": "setProtocolFeeBps",
      "outputs": [],
      "stateMutability": "nonpayable",
      "type": "function"
    }
  ],
  "bytecode": "0x60806040523480156200001157600080fd5b5060405162003b6538038062003b65833981810160405281019062000037919062000220565b600073ffffffffffffffffffffffffffffffffffffffff168373ffffffffffffffffffffffffffffffffffffffff1603620000a9576040517f08c379a0000000000000000000000000000000000000000000000000000000008152600401620000a090620002dd565b60405180910390fd5b336000806101000a81548173ffffffffffffffffffffffffffffffffffffffff021916908373ffffffffffffffffffffffffffffffffffffffff16021790555082600160006101000a81548173ffffffffffffffffffffffffffffffffffffffff021916908373ffffffffffffffffffffffffffffffffffffffff16021790555081600260006101000a81548173ffffffffffffffffffffffffffffffffffffffff021916908373ffffffffffffffffffffffffffffffffffffffff16021790555080600381905550505050620002ff565b600080fd5b600073ffffffffffffffffffffffffffffffffffffffff82169050919050565b6000620001ad8262000180565b9050919050565b620001bf81620001a0565b8114620001cb57600080fd5b50565b600081519050620001df81620001b4565b92915050565b6000819050919050565b620001fa81620001e5565b81146200020657600080fd5b50565b6000815190506200021a81620001ef565b92915050565b6000806000606084860312156200023c576200023b6200017b565b5b60006200024c86828701620001ce565b93505060206200025f86828701620001ce565b9250506040620002728682870162000209565b9150509250925092565b600082825260208201905092915050565b7f496e76616c696420616461707465720000000000000000000000000000000000600082015250565b6000620002c5600f836200027c565b9150620002d2826200028d565b602082019050919050565b60006020820190508181036000830152620002f881620002b6565b9050919050565b613856806200030f6000396000f3fe60806040523480156200001157600080fd5b5060043610620000ac5760003560e01c8063ab1da79c116200006f578063ab1da79c146200016f578063b1283e77146200018f578063c0417e5814620001c5578063e74b981b14620001e5578063ec2c9016146200020557620000ac565b806303eadcfc14620000b157806335659fb814620000d35780634690484014620000f55780638da5cb5b14620001175780638ef0fe101462000139575b600080fd5b620000bb62000227565b604051620000ca919062000763565b60405180910390f35b620000dd6200024d565b604051620000ec91906200079b565b60405180910390f35b620000ff62000253565b6040516200010e919062000763565b60405180910390f35b6200012162000279565b60405162000130919062000763565b60405180910390f35b62000157600480360381019062000151919062000829565b6200029d565b60405162000166919062000763565b60405180910390f35b6200018d6004803603810190620001879190620008e2565b620003fb565b005b620001ad6004803603810190620001a7919062000914565b620004d0565b604051620001bc919062000763565b60405180910390f35b620001e36004803603810190620001dd919062000914565b62000510565b005b620002036004803603810190620001fd9190620008e2565b620005ab565b005b6200020f62000680565b6040516200021e919062000a14565b60405180910390f35b600160009054906101000a900473ffffffffffffffffffffffffffffffffffffffff1681565b60035481565b600260009054906101000a900473ffffffffffffffffffffffffffffffffffffffff1681565b60008054906101000a900473ffffffffffffffffffffffffffffffffffffffff1681565b600080338787878787600160009054906101000a900473ffffffffffffffffffffffffffffffffffffffff16600260009054906101000a900473ffffffffffffffffffffffffffffffffffffffff16600354604051620002fd9062000710565b620003119998979695949392919062000a49565b604051809103906000f0801580156200032e573d6000803e3d6000fd5b5090506004819080600181540180825580915050600190039060005260206000200160009091909190916101000a81548173ffffffffffffffffffffffffffffffffffffffff021916908373ffffffffffffffffffffffffffffffffffffffff1602179055503373ffffffffffffffffffffffffffffffffffffffff168173ffffffffffffffffffffffffffffffffffffffff167f72bd1c1aa0b3cf8d29142bf2c3100320c089ef228d094996deac45cf9cb9453560405160405180910390a38091505095945050505050565b60008054906101000a900473ffffffffffffffffffffffffffffffffffffffff1673ffffffffffffffffffffffffffffffffffffffff163373ffffffffffffffffffffffffffffffffffffffff16146200048c576040517f08c379a0000000000000000000000000000000000000000000000000000000008152600401620004839062000b49565b60405180910390fd5b80600160006101000a81548173ffffffffffffffffffffffffffffffffffffffff021916908373ffffffffffffffffffffffffffffffffffffffff16021790555050565b60048181548110620004e157600080fd5b906000526020600020016000915054906101000a900473ffffffffffffffffffffffffffffffffffffffff1681565b60008054906101000a900473ffffffffffffffffffffffffffffffffffffffff1673ffffffffffffffffffffffffffffffffffffffff163373ffffffffffffffffffffffffffffffffffffffff1614620005a1576040517f08c379a0000000000000000000000000000000000000000000000000000000008152600401620005989062000b49565b60405180910390fd5b8060038190555050565b60008054906101000a900473ffffffffffffffffffffffffffffffffffffffff1673ffffffffffffffffffffffffffffffffffffffff163373ffffffffffffffffffffffffffffffffffffffff16146200063c576040517f08c379a0000000000000000000000000000000000000000000000000000000008152600401620006339062000b49565b60405180910390fd5b80600260006101000a81548173ffffffffffffffffffffffffffffffffffffffff021916908373ffffffffffffffffffffffffffffffffffffffff16021790555050565b606060048054806020026020016040519081016040528092919081815260200182805480156200070657602002820191906000526020600020905b8160009054906101000a900473ffffffffffffffffffffffffffffffffffffffff1673ffffffffffffffffffffffffffffffffffffffff1681526020019060010190808311620006bb575b5050505050905090565b612cb58062000b6c83390190565b600073ffffffffffffffffffffffffffffffffffffffff82169050919050565b60006200074b826200071e565b9050919050565b6200075d816200073e565b82525050565b60006020820190506200077a600083018462000752565b92915050565b6000819050919050565b620007958162000780565b82525050565b6000602082019050620007b260008301846200078a565b92915050565b600080fd5b620007c88162000780565b8114620007d457600080fd5b50565b600081359050620007e881620007bd565b92915050565b6000819050919050565b6200080381620007ee565b81146200080f57600080fd5b50565b6000813590506200082381620007f8565b92915050565b600080600080600060a08688031215620008485762000847620007b8565b5b60006200085888828901620007d7565b95505060206200086b88828901620007d7565b94505060406200087e88828901620007d7565b93505060606200089188828901620007d7565b9250506080620008a48882890162000812565b9150509295509295909350565b620008bc816200073e565b8114620008c857600080fd5b50565b600081359050620008dc81620008b1565b92915050565b600060208284031215620008fb57620008fa620007b8565b5b60006200090b84828501620008cb565b91505092915050565b6000602082840312156200092d576200092c620007b8565b5b60006200093d84828501620007d7565b91505092915050565b600081519050919050565b600082825260208201905092915050565b6000819050602082019050919050565b6200097d816200073e565b82525050565b600062000991838362000972565b60208301905092915050565b6000602082019050919050565b6000620009b78262000946565b620009c3818562000951565b9350620009d08362000962565b8060005b8381101562000a07578151620009eb888262000983565b9750620009f8836200099d565b925050600181019050620009d4565b5085935050505092915050565b6000602082019050818103600083015262000a308184620009aa565b905092915050565b62000a4381620007ee565b82525050565b60006101208201905062000a61600083018c62000752565b62000a70602083018b6200078a565b62000a7f604083018a6200078a565b62000a8e60608301896200078a565b62000a9d60808301886200078a565b62000aac60a083018762000a38565b62000abb60c083018662000752565b62000aca60e083018562000752565b62000ada6101008301846200078a565b9a9950505050505050505050565b600082825260208201905092915050565b7f4f6e6c79206f776e657200000000000000000000000000000000000000000000600082015250565b600062000b31600a8362000ae8565b915062000b3e8262000af9565b602082019050919050565b6000602082019050818103600083015262000b648162000b22565b905091905056fe60806040523480156200001157600080fd5b5060405162002cb538038062002cb5833981810160405281019062000037919062000401565b60016000819055506200005f620000536200025360201b60201c565b6200025b60201b60201c565b858710620000a4576040517f08c379a00000000000000000000000000000000000000000000000000000000081526004016200009b9062000541565b60405180910390fd5b600073ffffffffffffffffffffffffffffffffffffffff168373ffffffffffffffffffffffffffffffffffffffff160362000116576040517f08c379a00000000000000000000000000000000000000000000000000000000081526004016200010d90620005b3565b60405180910390fd5b88600360006101000a81548173ffffffffffffffffffffffffffffffffffffffff021916908373ffffffffffffffffffffffffffffffffffffffff16021790555033600260006101000a81548173ffffffffffffffffffffffffffffffffffffffff021916908373ffffffffffffffffffffffffffffffffffffffff160217905550876004819055508660058190555085600681905550846007819055508360088190555082600960006101000a81548173ffffffffffffffffffffffffffffffffffffffff021916908373ffffffffffffffffffffffffffffffffffffffff16021790555081601360006101000a81548173ffffffffffffffffffffffffffffffffffffffff021916908373ffffffffffffffffffffffffffffffffffffffff16021790555080601281905550505050505050505050620005d5565b600033905090565b6000600160009054906101000a900473ffffffffffffffffffffffffffffffffffffffff16905081600160006101000a81548173ffffffffffffffffffffffffffffffffffffffff021916908373ffffffffffffffffffffffffffffffffffffffff1602179055508173ffffffffffffffffffffffffffffffffffffffff168173ffffffffffffffffffffffffffffffffffffffff167f8be0079c531659141344cd1fd0a4f28419497f9722a3daafe3b4186f6b6457e060405160405180910390a35050565b600080fd5b600073ffffffffffffffffffffffffffffffffffffffff82169050919050565b6000620003538262000326565b9050919050565b620003658162000346565b81146200037157600080fd5b50565b60008151905062000385816200035a565b92915050565b6000819050919050565b620003a0816200038b565b8114620003ac57600080fd5b50565b600081519050620003c08162000395565b92915050565b6000819050919050565b620003db81620003c6565b8114620003e757600080fd5b50565b600081519050620003fb81620003d0565b92915050565b60008060008060008060008060006101208a8c03121562000427576200042662000321565b5b6000620004378c828d0162000374565b99505060206200044a8c828d01620003af565b98505060406200045d8c828d01620003af565b9750506060620004708c828d01620003af565b9650506080620004838c828d01620003af565b95505060a0620004968c828d01620003ea565b94505060c0620004a98c828d0162000374565b93505060e0620004bc8c828d0162000374565b925050610100620004d08c828d01620003af565b9150509295985092959850929598565b600082825260208201905092915050565b7f496e76616c69642074696d657300000000000000000000000000000000000000600082015250565b600062000529600d83620004e0565b91506200053682620004f1565b602082019050919050565b600060208201905081810360008301526200055c816200051a565b9050919050565b7f496e76616c696420616461707465720000000000000000000000000000000000600082015250565b60006200059b600f83620004e0565b9150620005a88262000563565b602082019050919050565b60006020820190508181036000830152620005ce816200058c565b9050919050565b6126d080620005e56000396000f3fe6080604052600436106101bb5760003560e01c806378e97925116100ec578063af0088831161008a578063c884ef8311610064578063c884ef8314610597578063e74b981b146105d4578063ec6d3f37146105fd578063f2fde38b14610628576101c2565b8063af00888314610525578063b52d9c1914610550578063c45a01551461056c576101c2565b80638da5cb5b116100c65780638da5cb5b146104795780638f775839146104a45780639619367d146104cf578063ad8f5008146104fa576101c2565b806378e97925146103f857806388ba8dd6146104235780638d215fe31461044e576101c2565b806346904840116101595780636bfefd6b116101335780636bfefd6b14610364578063715018a61461037b5780637620ba3014610392578063787dce3d146103cf576101c2565b806346904840146102e55780634e71d92d1461031057806350b3b0c514610327576101c2565b8063311893341161019557806331189334146102395780633197cbb61461026457806335659fb81461028f5780633f9942ff146102ba576101c2565b806302d05d3f146101c757806303eadcfc146101f2578063096a37781461021d576101c2565b366101c257005b600080fd5b3480156101d357600080fd5b506101dc610651565b6040516101e991906116d4565b60405180910390f35b3480156101fe57600080fd5b50610207610677565b604051610214919061174e565b60405180910390f35b610237600480360381019061023291906117b5565b61069d565b005b34801561024557600080fd5b5061024e6108d3565b60405161025b91906117fb565b60405180910390f35b34801561027057600080fd5b506102796108d9565b604051610286919061182f565b60405180910390f35b34801561029b57600080fd5b506102a46108df565b6040516102b1919061182f565b60405180910390f35b3480156102c657600080fd5b506102cf6108e5565b6040516102dc9190611859565b60405180910390f35b3480156102f157600080fd5b506102fa6108f8565b60405161030791906116d4565b60405180910390f35b34801561031c57600080fd5b5061032561091e565b005b34801561033357600080fd5b5061034e600480360381019061034991906118a0565b610eb1565b60405161035b919061182f565b60405180910390f35b34801561037057600080fd5b50610379610ec9565b005b34801561038757600080fd5b506103906110a6565b005b34801561039e57600080fd5b506103b960048036038101906103b491906118a0565b6110ba565b6040516103c6919061182f565b60405180910390f35b3480156103db57600080fd5b506103f660048036038101906103f191906118f9565b6110d2565b005b34801561040457600080fd5b5061040d611129565b60405161041a919061182f565b60405180910390f35b34801561042f57600080fd5b5061043861112f565b604051610445919061182f565b60405180910390f35b34801561045a57600080fd5b50610463611135565b604051610470919061182f565b60405180910390f35b34801561048557600080fd5b5061048e61113b565b60405161049b91906116d4565b60405180910390f35b3480156104b057600080fd5b506104b9611165565b6040516104c69190611859565b60405180910390f35b3480156104db57600080fd5b506104e4611178565b6040516104f1919061182f565b60405180910390f35b34801561050657600080fd5b5061050f61117e565b60405161051c919061182f565b60405180910390f35b34801561053157600080fd5b5061053a611184565b604051610547919061182f565b60405180910390f35b61056a6004803603810190610565919061198b565b61118a565b005b34801561057857600080fd5b506105816113c4565b60405161058e91906116d4565b60405180910390f35b3480156105a357600080fd5b506105be60048036038101906105b991906118a0565b6113ea565b6040516105cb9190611859565b60405180910390f35b3480156105e057600080fd5b506105fb60048036038101906105f691906118a0565b61140a565b005b34801561060957600080fd5b50610612611456565b60405161061f91906119f1565b60405180910390f35b34801561063457600080fd5b5061064f600480360381019061064a91906118a0565b61145c565b005b600360009054906101000a900473ffffffffffffffffffffffffffffffffffffffff1681565b600960009054906101000a900473ffffffffffffffffffffffffffffffffffffffff1681565b6106a56114df565b60055442101580156106b8575060065442105b6106f7576040517f08c379a00000000000000000000000000000000000000000000000000000000081526004016106ee90611a69565b60405180910390fd5b60075434101561073c576040517f08c379a000000000000000000000000000000000000000000000000000000000815260040161073390611ad5565b60405180910390fd5b80156108075734600f60003373ffffffffffffffffffffffffffffffffffffffff1673ffffffffffffffffffffffffffffffffffffffff16815260200190815260200160002060008282546107919190611b24565b9250508190555034600a60008282546107aa9190611b24565b925050819055503373ffffffffffffffffffffffffffffffffffffffff167f9f6b4cced64244a64465098f682029975b1614400b96bc6bd12c6680837191666001346040516107fa929190611bcf565b60405180910390a26108c8565b34601060003373ffffffffffffffffffffffffffffffffffffffff1673ffffffffffffffffffffffffffffffffffffffff16815260200190815260200160002060008282546108569190611b24565b9250508190555034600b600082825461086f9190611b24565b925050819055503373ffffffffffffffffffffffffffffffffffffffff167f9f6b4cced64244a64465098f682029975b1614400b96bc6bd12c6680837191666000346040516108bf929190611bcf565b60405180910390a25b6108d061152e565b50565b60085481565b60065481565b60125481565b600c60019054906101000a900460ff1681565b601360009054906101000a900473ffffffffffffffffffffffffffffffffffffffff1681565b6109266114df565b600c60009054906101000a900460ff168061094d5750600c60019054906101000a900460ff165b61098c576040517f08c379a000000000000000000000000000000000000000000000000000000000815260040161098390611c44565b60405180910390fd5b601160003373ffffffffffffffffffffffffffffffffffffffff1673ffffffffffffffffffffffffffffffffffffffff16815260200190815260200160002060009054906101000a900460ff1615610a19576040517f08c379a0000000000000000000000000000000000000000000000000000000008152600401610a1090611cb0565b60405180910390fd5b6001601160003373ffffffffffffffffffffffffffffffffffffffff1673ffffffffffffffffffffffffffffffffffffffff16815260200190815260200160002060006101000a81548160ff0219169083151502179055506000600c60019054906101000a900460ff1615610b1957601060003373ffffffffffffffffffffffffffffffffffffffff1673ffffffffffffffffffffffffffffffffffffffff16815260200190815260200160002054600f60003373ffffffffffffffffffffffffffffffffffffffff1673ffffffffffffffffffffffffffffffffffffffff16815260200190815260200160002054610b129190611b24565b9050610da1565b6000610b26600d54611538565b9050600081610b3757600b54610b3b565b600a545b9050600082610b4c57600a54610b50565b600b545b9050600083610b9e57601060003373ffffffffffffffffffffffffffffffffffffffff1673ffffffffffffffffffffffffffffffffffffffff16815260200190815260200160002054610bdf565b600f60003373ffffffffffffffffffffffffffffffffffffffff1673ffffffffffffffffffffffffffffffffffffffff168152602001908152602001600020545b905060008103610bf25760009450610d9c565b6000838385610c019190611b24565b83610c0c9190611cd0565b610c169190611d41565b90506000828211610c28576000610c35565b8282610c349190611d72565b5b9050600061271060125483610c4a9190611cd0565b610c549190611d41565b90508083610c629190611d72565b9750600081118015610cc35750600073ffffffffffffffffffffffffffffffffffffffff16601360009054906101000a900473ffffffffffffffffffffffffffffffffffffffff1673ffffffffffffffffffffffffffffffffffffffff1614155b15610d98576000601360009054906101000a900473ffffffffffffffffffffffffffffffffffffffff1673ffffffffffffffffffffffffffffffffffffffff1682604051610d1090611dd7565b60006040518083038185875af1925050503d8060008114610d4d576040519150601f19603f3d011682016040523d82523d6000602084013e610d52565b606091505b5050905080610d96576040517f08c379a0000000000000000000000000000000000000000000000000000000008152600401610d8d90611e38565b60405180910390fd5b505b5050505b505050505b6000811115610e585760003373ffffffffffffffffffffffffffffffffffffffff1682604051610dd090611dd7565b60006040518083038185875af1925050503d8060008114610e0d576040519150601f19603f3d011682016040523d82523d6000602084013e610e12565b606091505b5050905080610e56576040517f08c379a0000000000000000000000000000000000000000000000000000000008152600401610e4d90611ea4565b60405180910390fd5b505b3373ffffffffffffffffffffffffffffffffffffffff167fd8138f8a3f377c5259ca548e70e4c2de94f129f5a11036a15b69513cba2b426a82604051610e9e919061182f565b60405180910390a250610eaf61152e565b565b600f6020528060005260406000206000915090505481565b600c60009054906101000a900460ff1615610f19576040517f08c379a0000000000000000000000000000000000000000000000000000000008152600401610f1090611f10565b60405180910390fd5b600c60019054906101000a900460ff1615610f69576040517f08c379a0000000000000000000000000000000000000000000000000000000008152600401610f6090611f7c565b60405180910390fd5b600360009054906101000a900473ffffffffffffffffffffffffffffffffffffffff1673ffffffffffffffffffffffffffffffffffffffff163373ffffffffffffffffffffffffffffffffffffffff1614806110125750600260009054906101000a900473ffffffffffffffffffffffffffffffffffffffff1673ffffffffffffffffffffffffffffffffffffffff163373ffffffffffffffffffffffffffffffffffffffff16145b8061101e575060055442105b61105d576040517f08c379a000000000000000000000000000000000000000000000000000000000815260040161105490611fe8565b60405180910390fd5b6001600c60016101000a81548160ff0219169083151502179055507f4fadb7118e1d9908e38104cfc893e949500a77e88e1d2ce606bd795f61d6609460405160405180910390a1565b6110ae611547565b6110b860006115c5565b565b60106020528060005260406000206000915090505481565b6110da611547565b6103e881111561111f576040517f08c379a000000000000000000000000000000000000000000000000000000000815260040161111690612054565b60405180910390fd5b8060128190555050565b60055481565b600a5481565b600e5481565b6000600160009054906101000a900473ffffffffffffffffffffffffffffffffffffffff16905090565b600c60009054906101000a900460ff1681565b60075481565b60045481565b600b5481565b6111926114df565b600c60009054906101000a900460ff161580156111bc5750600c60019054906101000a900460ff16155b6111fb576040517f08c379a00000000000000000000000000000000000000000000000000000000081526004016111f2906120c0565b60405180910390fd5b6000600960009054906101000a900473ffffffffffffffffffffffffffffffffffffffff1673ffffffffffffffffffffffffffffffffffffffff1663dcf7b8ca60085485856040518463ffffffff1660e01b815260040161125e93929190612264565b6060604051808303816000875af115801561127d573d6000803e3d6000fd5b505050506040513d601f19601f820116820180604052508101906112a191906123f4565b9050600654816040015110156112ec576040517f08c379a00000000000000000000000000000000000000000000000000000000081526004016112e39061246d565b60405180910390fd5b6000600e5414611331576040517f08c379a0000000000000000000000000000000000000000000000000000000008152600401611328906124d9565b60405180910390fd5b8060400151600e819055508060000151600d819055506001600c60006101000a81548160ff02191690831515021790555060006113718260000151611538565b90507fb21454143901b5b0f81fb5aa4a80a7c4f880b76759bc0219f2f1d98dd6674d6c82600001518360400151836040516113ae939291906124f9565b60405180910390a150506113c061152e565b5050565b600260009054906101000a900473ffffffffffffffffffffffffffffffffffffffff1681565b60116020528060005260406000206000915054906101000a900460ff1681565b611412611547565b80601360006101000a81548173ffffffffffffffffffffffffffffffffffffffff021916908373ffffffffffffffffffffffffffffffffffffffff16021790555050565b600d5481565b611464611547565b600073ffffffffffffffffffffffffffffffffffffffff168173ffffffffffffffffffffffffffffffffffffffff16036114d3576040517f08c379a00000000000000000000000000000000000000000000000000000000081526004016114ca906125a2565b60405180910390fd5b6114dc816115c5565b50565b600260005403611524576040517f08c379a000000000000000000000000000000000000000000000000000000000815260040161151b9061260e565b60405180910390fd5b6002600081905550565b6001600081905550565b60006004548212159050919050565b61154f61168b565b73ffffffffffffffffffffffffffffffffffffffff1661156d61113b565b73ffffffffffffffffffffffffffffffffffffffff16146115c3576040517f08c379a00000000000000000000000000000000000000000000000000000000081526004016115ba9061267a565b60405180910390fd5b565b6000600160009054906101000a900473ffffffffffffffffffffffffffffffffffffffff16905081600160006101000a81548173ffffffffffffffffffffffffffffffffffffffff021916908373ffffffffffffffffffffffffffffffffffffffff1602179055508173ffffffffffffffffffffffffffffffffffffffff168173ffffffffffffffffffffffffffffffffffffffff167f8be0079c531659141344cd1fd0a4f28419497f9722a3daafe3b4186f6b6457e060405160405180910390a35050565b600033905090565b600073ffffffffffffffffffffffffffffffffffffffff82169050919050565b60006116be82611693565b9050919050565b6116ce816116b3565b82525050565b60006020820190506116e960008301846116c5565b92915050565b6000819050919050565b600061171461170f61170a84611693565b6116ef565b611693565b9050919050565b6000611726826116f9565b9050919050565b60006117388261171b565b9050919050565b6117488161172d565b82525050565b6000602082019050611763600083018461173f565b92915050565b6000604051905090565b600080fd5b600080fd5b60008115159050919050565b6117928161177d565b811461179d57600080fd5b50565b6000813590506117af81611789565b92915050565b6000602082840312156117cb576117ca611773565b5b60006117d9848285016117a0565b91505092915050565b6000819050919050565b6117f5816117e2565b82525050565b600060208201905061181060008301846117ec565b92915050565b6000819050919050565b61182981611816565b82525050565b60006020820190506118446000830184611820565b92915050565b6118538161177d565b82525050565b600060208201905061186e600083018461184a565b92915050565b61187d816116b3565b811461188857600080fd5b50565b60008135905061189a81611874565b92915050565b6000602082840312156118b6576118b5611773565b5b60006118c48482850161188b565b91505092915050565b6118d681611816565b81146118e157600080fd5b50565b6000813590506118f3816118cd565b92915050565b60006020828403121561190f5761190e611773565b5b600061191d848285016118e4565b91505092915050565b600080fd5b600080fd5b600080fd5b60008083601f84011261194b5761194a611926565b5b8235905067ffffffffffffffff8111156119685761196761192b565b5b60208301915083602082028301111561198457611983611930565b5b9250929050565b600080602083850312156119a2576119a1611773565b5b600083013567ffffffffffffffff8111156119c0576119bf611778565b5b6119cc85828601611935565b92509250509250929050565b6000819050919050565b6119eb816119d8565b82525050565b6000602082019050611a0660008301846119e2565b92915050565b600082825260208201905092915050565b7f42657474696e6720636c6f736564000000000000000000000000000000000000600082015250565b6000611a53600e83611a0c565b9150611a5e82611a1d565b602082019050919050565b60006020820190508181036000830152611a8281611a46565b9050919050565b7f42656c6f77206d696e2062657400000000000000000000000000000000000000600082015250565b6000611abf600d83611a0c565b9150611aca82611a89565b602082019050919050565b60006020820190508181036000830152611aee81611ab2565b9050919050565b7f4e487b7100000000000000000000000000000000000000000000000000000000600052601160045260246000fd5b6000611b2f82611816565b9150611b3a83611816565b9250828201905080821115611b5257611b51611af5565b5b92915050565b7f4e487b7100000000000000000000000000000000000000000000000000000000600052602160045260246000fd5b60028110611b9857611b97611b58565b5b50565b6000819050611ba982611b87565b919050565b6000611bb982611b9b565b9050919050565b611bc981611bae565b82525050565b6000604082019050611be46000830185611bc0565b611bf16020830184611820565b9392505050565b7f4e6f7420736574746c6564206f722063616e63656c6564000000000000000000600082015250565b6000611c2e601783611a0c565b9150611c3982611bf8565b602082019050919050565b60006020820190508181036000830152611c5d81611c21565b9050919050565b7f416c726561647920636c61696d65640000000000000000000000000000000000600082015250565b6000611c9a600f83611a0c565b9150611ca582611c64565b602082019050919050565b60006020820190508181036000830152611cc981611c8d565b9050919050565b6000611cdb82611816565b9150611ce683611816565b9250828202611cf481611816565b91508282048414831517611d0b57611d0a611af5565b5b5092915050565b7f4e487b7100000000000000000000000000000000000000000000000000000000600052601260045260246000fd5b6000611d4c82611816565b9150611d5783611816565b925082611d6757611d66611d12565b5b828204905092915050565b6000611d7d82611816565b9150611d8883611816565b9250828203905081811115611da057611d9f611af5565b5b92915050565b600081905092915050565b50565b6000611dc1600083611da6565b9150611dcc82611db1565b600082019050919050565b6000611de282611db4565b9150819050919050565b7f466565207472616e73666572206661696c656400000000000000000000000000600082015250565b6000611e22601383611a0c565b9150611e2d82611dec565b602082019050919050565b60006020820190508181036000830152611e5181611e15565b9050919050565b7f5061796f7574206661696c656400000000000000000000000000000000000000600082015250565b6000611e8e600d83611a0c565b9150611e9982611e58565b602082019050919050565b60006020820190508181036000830152611ebd81611e81565b9050919050565b7f416c726561647920736574746c65640000000000000000000000000000000000600082015250565b6000611efa600f83611a0c565b9150611f0582611ec4565b602082019050919050565b60006020820190508181036000830152611f2981611eed565b9050919050565b7f416c72656164792063616e63656c656400000000000000000000000000000000600082015250565b6000611f66601083611a0c565b9150611f7182611f30565b602082019050919050565b60006020820190508181036000830152611f9581611f59565b9050919050565b7f4e6f7420616c6c6f776564000000000000000000000000000000000000000000600082015250565b6000611fd2600b83611a0c565b9150611fdd82611f9c565b602082019050919050565b6000602082019050818103600083015261200181611fc5565b9050919050565b7f46656520746f6f20686967680000000000000000000000000000000000000000600082015250565b600061203e600c83611a0c565b915061204982612008565b602082019050919050565b6000602082019050818103600083015261206d81612031565b9050919050565b7f416c726561647920736574746c6564206f722063616e63656c65640000000000600082015250565b60006120aa601b83611a0c565b91506120b582612074565b602082019050919050565b600060208201905081810360008301526120d98161209d565b9050919050565b600082825260208201905092915050565b6000819050919050565b600082825260208201905092915050565b82818337600083830152505050565b6000601f19601f8301169050919050565b600061213883856120fb565b935061214583858461210c565b61214e8361211b565b840190509392505050565b600061216684848461212c565b90509392505050565b600080fd5b600080fd5b600080fd5b6000808335600160200384360303811261219b5761219a612179565b5b83810192508235915060208301925067ffffffffffffffff8211156121c3576121c261216f565b5b6001820236038313156121d9576121d8612174565b5b509250929050565b6000602082019050919050565b60006121fa83856120e0565b93508360208402850161220c846120f1565b8060005b87811015612252578484038952612227828461217e565b612232868284612159565b955061223d846121e1565b935060208b019a505050600181019050612210565b50829750879450505050509392505050565b600060408201905061227960008301866117ec565b818103602083015261228c8184866121ee565b9050949350505050565b600080fd5b7f4e487b7100000000000000000000000000000000000000000000000000000000600052604160045260246000fd5b6122d38261211b565b810181811067ffffffffffffffff821117156122f2576122f161229b565b5b80604052505050565b6000612305611769565b905061231182826122ca565b919050565b61231f816119d8565b811461232a57600080fd5b50565b60008151905061233c81612316565b92915050565b60008160030b9050919050565b61235881612342565b811461236357600080fd5b50565b6000815190506123758161234f565b92915050565b60008151905061238a816118cd565b92915050565b6000606082840312156123a6576123a5612296565b5b6123b060606122fb565b905060006123c08482850161232d565b60008301525060206123d484828501612366565b60208301525060406123e88482850161237b565b60408301525092915050565b60006060828403121561240a57612409611773565b5b600061241884828501612390565b91505092915050565b7f5075626c6973682074696d65206265666f726520656e6454696d650000000000600082015250565b6000612457601b83611a0c565b915061246282612421565b602082019050919050565b600060208201905081810360008301526124868161244a565b9050919050565b7f416c72656164792075736564207075626c69736854696d650000000000000000600082015250565b60006124c3601883611a0c565b91506124ce8261248d565b602082019050919050565b600060208201905081810360008301526124f2816124b6565b9050919050565b600060608201905061250e60008301866119e2565b61251b6020830185611820565b612528604083018461184a565b949350505050565b7f4f776e61626c653a206e6577206f776e657220697320746865207a65726f206160008201527f6464726573730000000000000000000000000000000000000000000000000000602082015250565b600061258c602683611a0c565b915061259782612530565b604082019050919050565b600060208201905081810360008301526125bb8161257f565b9050919050565b7f5265656e7472616e637947756172643a207265656e7472616e742063616c6c00600082015250565b60006125f8601f83611a0c565b9150612603826125c2565b602082019050919050565b60006020820190508181036000830152612627816125eb565b9050919050565b7f4f776e61626c653a2063616c6c6572206973206e6f7420746865206f776e6572600082015250565b6000612664602083611a0c565b915061266f8261262e565b602082019050919050565b6000602082019050818103600083015261269381612657565b905091905056fea2646970667358221220171a1ed2eb7aed9808be3debe597e9e30ee0e33033c5282743266ba3e2bd481d64736f6c63430008130033a2646970667358221220389bba04fb0e222fef460d1907efc7eaf3cb2aa8aed948bf174d9c5f3b1fe3e164736f6c63430008130033",
  "linkReferences": {},
  "deployedLinkReferences": {},
  "immutableReferences": {},
  "inputSourceName": "project/contracts/MarketFactory.sol",
  "buildInfoId": "solc-0_8_19-2eff19ef75f62c57ff312100cb174aef3ed1f744"
}